:100000000C9462000C948A000C948A000C948A0070
:100010000C948A000C948A000C948A000C948A0038
:100020000C948A000C948A000C948A000C94DC02D4
:100030000C948A000C948A000C948A000C948A0018
:100040000C9492020C948A000C948A000C948A00FE
:100050000C948A000C948A000C948A000C948A00F8
:100060000C948A000C948A000000000024002700F1
:100070002A0000000000250028002B0000000000DE
:1000800023002600290004040404040404040202DA
:100090000202020203030303030301020408102007
:1000A0004080010204081020010204081020000012
:1000B0000008000201000003040700000000000027
:1000C0000000C40411241FBECFEFD8E0DEBFCDBFB7
:1000D00011E0A0E0B1E0EEE8FAE002C005900D9278
:1000E000AE31B107D9F721E0AEE1B1E001C01D9218
:1000F000AB35B207E1F710E0C2E6D0E004C02197CB
:10010000FE010E943F05C136D107C9F70E94B30323
:100110000C9445050C940000833081F028F4813064
:1001200099F08230A9F008958730A9F08830C9F09D
:100130008430B1F4809180008F7D03C08091800075
:100140008F7780938000089584B58F7784BD08955C
:1001500084B58F7DFBCF8091B0008F778093B00006
:1001600008958091B0008F7DF9CFCF93DF93282F32
:1001700030E0F901E255FF4F8491F901E656FF4F57
:10018000D491F901EA57FF4FC491CC23A1F081111A
:100190000E948C00EC2FF0E0EE0FFF1FE458FF4FA1
:1001A000A591B491EC91ED2381E090E009F480E019
:1001B000DF91CF91089580E090E0FACF1F93CF9325
:1001C000DF93282F30E0F901E255FF4F8491F901C8
:1001D000E656FF4FD491F901EA57FF4FC491CC2363
:1001E000A9F0162F81110E948C00EC2FF0E0EE0F89
:1001F000FF1FEE58FF4FA591B4918FB7F894EC9183
:10020000111108C0D095DE23DC938FBFDF91CF9111
:100210001F910895DE2BF8CFCF93DF9390E0FC0180
:10022000E656FF4F24918A579F4FFC018491882303
:10023000D1F090E0880F991FFC01E859FF4FA5917C
:10024000B491FC01EE58FF4FC591D491623071F426
:100250009FB7F8943C91822F809583238C93E881FB
:100260002E2B28839FBFDF91CF9108958FB7F894ED
:10027000EC912E2B2C938FBFF6CF1F93CF93DF9350
:10028000EC01162F88818C3008F04EC061E0812F80
:100290000E940C018881282F30E0F901EE0FFF1F2A
:1002A000E20FF31FE95CFE4F1F736081607C612BDE
:1002B000608319821A822CE0622F0E943305829F8C
:1002C000B001112430E020E0AB01420F531FFA01CE
:1002D000EE0FFF1FE40FF51FE95CFE4F908196FDC6
:1002E00016C02F5F3F4F2C30310571F781110FC0C1
:1002F0001092800082E0809381001092850010921D
:100300008400B19A80916F00826080936F00E881D1
:100310008E2F90E0FC01EE0FFF1FE80FF91FE95C44
:10032000FE4F8081806480838881DF91CF911F910F
:1003300008953FB7F8948091250190912601A091EE
:100340002701B091280126B5A89B05C02F3F19F0C1
:100350000196A11DB11D3FBFBA2FA92F982F882745
:10036000BC01CD01620F711D811D911D42E0660F20
:10037000771F881F991F4A95D1F708958F929F92F2
:10038000AF92BF92CF92DF92EF92FF920E949901BB
:100390004B015C0184EFC82EDD24D394E12CF12CB9
:1003A0000E949901681979098A099B09683E73407E
:1003B00081059105A8F321E0C21AD108E108F108EE
:1003C00088EE880E83E0981EA11CB11CC114D104D4
:1003D000E104F10429F7FF90EF90DF90CF90BF90F8
:1003E000AF909F908F900895CF92DF92EF92FF92FF
:1003F000CF93DF93EC01603282E07807CCF5653B68
:10040000710514F064EB70E0898128E830E0281B66
:10041000310987FD3395220F331F220F331F6901E6
:10042000330FEE08FF088A8128E532E0281B3109E6
:1004300087FD3395220F331F220F331F032E000C2D
:10044000440B550B2C193D094E095F09DB0177FF61
:1004500002C0B0E0A0E00E94FA0424EB30E040E0EB
:1004600050E00E94D004C20ED31EE41EF51EB60159
:10047000E881EC3070F5298188E890E0821B9109D1
:1004800027FD9395880F991F880F991F6817790783
:100490007CF02A8188E592E0821B910927FD9395E3
:1004A000880F991F880F991F681779070CF4CB01E3
:1004B0000297880F991F4FB7F8942E2F30E0F9015B
:1004C000EE0FFF1FE20FF31FE95CFE4F9283818363
:1004D0004FBFDF91CF91FF90EF90DF90CF900895C5
:1004E000CF93DF9326E0289FE001299FD00D1124B0
:1004F000C050DF4F6A817B818CE291E00E94F40161
:100500006C817D8189E291E00E94F4010E94BE012C
:10051000688179818FE291E00E94F401DF91CF91AF
:100520000C94BE011F920F920FB60F9211242F93BD
:100530003F938F939F93AF93BF93809121019091AD
:100540002201A0912301B09124013091200123E0E8
:10055000230F2D3758F50196A11DB11D20932001C1
:100560008093210190932201A0932301B093240151
:100570008091250190912601A0912701B091280139
:100580000196A11DB11D8093250190932601A09392
:100590002701B0932801BF91AF919F918F913F9117
:1005A0002F910F900FBE0F901F90189526E8230FE4
:1005B0000296A11DB11DD2CF1F920F920FB60F92BE
:1005C00011242F933F934F935F936F937F938F9358
:1005D0009F93AF93BF93CF93DF93EF93FF9380915C
:1005E0001E01C0911F01D0E087FF24C0109285003A
:1005F0001092840080911E018F5F80931E01809174
:100600001E01082E000C990B8C179D0724F4809175
:100610001E018C30C4F18091840090918500049675
:1006200080349C4908F47AC08091840090918500C0
:10063000049676C080911E01082E000C990B8C1731
:100640009D07C4F6E0911E018E2FEE0F990BFC0161
:10065000EE0FFF1FE80FF91FE95CFE4F808186FF58
:10066000C9CFE0911E018E2FEE0F990BFC01EE0F0A
:10067000FF1FE80FF91FE95CFE4F808160E08F7378
:100680000E94DE00B7CF2091840030918500E09178
:100690001E018E2FEE0F990BFC01EE0FFF1FE80FCE
:1006A000F91FE95CFE4F81819281820F931F909325
:1006B000890080938800E0911E018E2FEE0F990B28
:1006C000FC01EE0FFF1FE80FF91FE95CFE4F808170
:1006D00086FF11C0E0911E018E2FEE0F990BFC01D9
:1006E000EE0FFF1FE80FF91FE95CFE4F808161E00C
:1006F0008F730E94DE00FF91EF91DF91CF91BF9148
:10070000AF919F918F917F916F915F914F913F91A9
:100710002F910F900FBE0F901F90189580E49CE9C9
:1007200090938900809388008FEF80931E01E3CF20
:10073000FC0190911F019C3098F481E0890F809317
:100740001F019083892F90E0FC01EE0FFF1FE80F3F
:10075000F91FE95CFE4F88EB9BE09283818308954B
:100760008FEF80830895789484B5826084BD84B5CA
:10077000816084BD85B5826085BD85B5816085BD9C
:1007800080916E00816080936E0010928100809154
:1007900081008260809381008091810081608093DC
:1007A0008100809180008160809380008091B10001
:1007B00084608093B1008091B00081608093B0002C
:1007C00080917A00846080937A0080917A008260C0
:1007D00080937A0080917A00816080937A00809182
:1007E0007A00806880937A001092C10062E082E013
:1007F0000E940C0162E083E00E940C0162E084E050
:100800000E940C0162E085E00E940C0162E086E03B
:100810000E940C0169E070E08FE291E00E943D01CE
:100820006AE070E08CE291E00E943D016BE070E0D4
:1008300089E291E00E943D0190E080E00E94700218
:1008400080E0C82E80E0D82ED1E082E00E94B50082
:10085000892B91F48091360181110EC08091350170
:1008600081110AC080913401811106C08091330149
:10087000811102C0D093320183E00E94B500C09183
:100880003201892B81F4C1110EC080913501811193
:100890000AC080913401811106C080913301811119
:1008A00002C0D093360184E00E94B5001091360159
:1008B000892B71F411110CC0C1110AC0809134014F
:1008C000811106C080913301811102C0D09335019E
:1008D00085E00E94B50000913501892B61F411116A
:1008E0000AC0011108C0C11106C0809133018111F5
:1008F00002C0D093340186E00E94B500F09034012C
:10090000892BD9F411113AC001113BC0F11039C043
:10091000C11115C0D093330180913301882331F088
:1009200084E090E00E94700210923301C114D1045F
:1009300009F48BCF0E94000088CFCC2331F090E0E7
:1009400080E00E94700210923201112331F081E0A8
:1009500090E00E94700210923601002331F082E094
:1009600090E00E94700210923501FF20A9F283E00E
:1009700090E00E94700210923401CECFCC2339F364
:10098000DECFCC2351F3DBCF8FE291E00E949803BE
:100990008CE291E00E94980389E291E00C94980324
:1009A000052E97FB1EF400940E94E70457FD07D024
:1009B0000E94020507FC03D04EF40C94E704509506
:1009C0004095309521953F4F4F4F5F4F089590953B
:1009D0008095709561957F4F8F4F9F4F08950E942E
:1009E0002405A59F900DB49F900DA49F800D911D8F
:1009F00011240895B7FF0C94EF040E94EF04821BAA
:100A0000930B0895A1E21A2EAA1BBB1BFD010DC07A
:100A1000AA1FBB1FEE1FFF1FA217B307E407F507AE
:100A200020F0A21BB30BE40BF50B661F771F881F8A
:100A3000991F1A9469F760957095809590959B0120
:100A4000AC01BD01CF010895A29FB001B39FC001C9
:100A5000A39F700D811D1124911DB29F700D811DEA
:100A60001124911D0895991B79E004C0991F9617D0
:100A700008F0961B881F7A95C9F780950895EE0FA8
:0E0A8000FF1F0590F491E02D0994F894FFCF2C
:100A8E005A005A005A00960096005A0096001E0010
:0E0A9E005A001E005A0096001E005A001E004C
:00000001FF
