:100000000C9462000C948A000C948A000C948A0070
:100010000C948A000C948A000C948A000C948A0038
:100020000C948A000C948A000C948A000C949D0213
:100030000C948A000C948A000C948A000C948A0018
:100040000C9453020C948A000C948A000C948A003D
:100050000C948A000C948A000C948A000C948A00F8
:100060000C948A000C948A000000000024002700F1
:100070002A0000000000250028002B0000000000DE
:1000800023002600290004040404040404040202DA
:100090000202020203030303030301020408102007
:1000A0004080010204081020010204081020000012
:1000B0000008000201000003040700000000000027
:1000C00000000E0511241FBECFEFD8E0DEBFCDBF6C
:1000D00011E0A0E0B1E0E2E2FBE002C005900D9289
:1000E000A030B107D9F721E0A0E0B1E001C01D9236
:1000F000AD33B207E1F710E0C2E6D0E004C02197CB
:10010000FE010E948905C136D107C9F70E94740318
:100110000C948F050C940000833081F028F481301A
:1001200099F08230A9F008958730A9F08830C9F09D
:100130008430B1F4809180008F7D03C08091800075
:100140008F7780938000089584B58F7784BD08955C
:1001500084B58F7DFBCF8091B0008F778093B00006
:1001600008958091B0008F7DF9CFCF93DF93282F32
:1001700030E0F901E255FF4F8491F901E656FF4F57
:10018000D491F901EA57FF4FC491CC23A1F081111A
:100190000E948C00EC2FF0E0EE0FFF1FE458FF4FA1
:1001A000A591B491EC91ED2381E090E009F480E019
:1001B000DF91CF91089580E090E0FACF1F93CF9325
:1001C000DF93282F30E0F901E255FF4F8491F901C8
:1001D000E656FF4FD491F901EA57FF4FC491CC2363
:1001E000A9F0162F81110E948C00EC2FF0E0EE0F89
:1001F000FF1FEE58FF4FA591B4918FB7F894EC9183
:10020000111108C0D095DE23DC938FBFDF91CF9111
:100210001F910895DE2BF8CFCF93DF9390E0FC0180
:10022000E656FF4F24918A579F4FFC018491882303
:10023000D1F090E0880F991FFC01E859FF4FA5917C
:10024000B491FC01EE58FF4FC591D491623071F426
:100250009FB7F8943C91822F809583238C93E881FB
:100260002E2B28839FBFDF91CF9108958FB7F894ED
:10027000EC912E2B2C938FBFF6CF3FB7F894809143
:100280002B0190912C01A0912D01B0912E0126B54A
:10029000A89B05C02F3F19F00196A11DB11D3FBFBE
:1002A000BA2FA92F982F8827BC01CD01620F711D8D
:1002B000811D911D42E0660F771F881F991F4A9587
:1002C000D1F708958F929F92AF92BF92CF92DF9213
:1002D000EF92FF924B015C010E943D016B017C019A
:1002E0000E943D016C197D098E099F09683E73408B
:1002F00081059105A8F321E0821A9108A108B108AF
:1003000088EEC80E83E0D81EE11CF11C8114910414
:10031000A104B10429F7FF90EF90DF90CF90BF9038
:10032000AF909F908F9008958F929F92AF92BF92BF
:10033000FF920F931F93CF93DF93FC01F0808BE02C
:100340008F1508F44AC0828108E512E0081B1109E4
:1003500087FD1395000F111F000F111F8181C8E841
:10036000D0E0C81BD10987FDD395CC0FDD1FCC0F82
:10037000DD1F4E010D2E000CAA08BB089801012EAE
:10038000000C440B550B281939094A095B09DB019C
:100390000E94440524EB30E040E050E00E941A0542
:1003A000820E931EA41EB51E8C169D062CF0E8012D
:1003B000801691060CF4E4012297CC0FDD1F2FB7B5
:1003C000F8948F2D90E0FC01EE0FFF1FE80FF91F4E
:1003D000EE5FFE4FD283C1832FBFDF91CF911F917C
:1003E0000F91FF90BF90AF909F908F9008951F93B3
:1003F000CF93DF93EC01162F88818C3008F04EC02C
:1004000061E0812F0E940C018881282F30E0F901E2
:10041000EE0FFF1FE20FF31FEE5FFE4F1F736081B1
:10042000607C612B608319821A822CE0622F0E940B
:100430007D05829FB001112430E020E0AB01420F26
:10044000531FFA01EE0FFF1FE40FF51FEE5FFE4F83
:10045000908196FD16C02F5F3F4F2C30310571F70C
:1004600081110FC01092800082E080938100109271
:10047000850010928400B19A80916F008260809311
:100480006F00E8818E2F90E0FC01EE0FFF1FE80F58
:10049000F91FEE5FFE4F8081806480838881DF9149
:1004A000CF911F9108951F920F920FB60F921124B2
:1004B0002F933F938F939F93AF93BF938091270187
:1004C00090912801A0912901B0912A013091260133
:1004D00023E0230F2D3758F50196A11DB11D209360
:1004E00026018093270190932801A0932901B093BE
:1004F0002A0180912B0190912C01A0912D01B091A6
:100500002E010196A11DB11D80932B0190932C010A
:10051000A0932D01B0932E01BF91AF919F918F9128
:100520003F912F910F900FBE0F901F90189526E8C6
:10053000230F0296A11DB11DD2CF1F920F920FB6AD
:100540000F9211242F933F934F935F936F937F9359
:100550008F939F93AF93BF93CF93DF93EF93FF93CB
:1005600080910001C0910101D0E087FF24C010926A
:10057000850010928400809100018F5F80930001BC
:1005800080910001082E000C990B8C179D0724F414
:10059000809100018C30C4F180918400909185009D
:1005A000049680349C4908F47AC08091840090912C
:1005B0008500049676C080910001082E000C990BEE
:1005C0008C179D07C4F6E09100018E2FEE0F990B5A
:1005D000FC01EE0FFF1FE80FF91FEE5FFE4F808159
:1005E00086FFC9CFE09100018E2FEE0F990BFC0121
:1005F000EE0FFF1FE80FF91FEE5FFE4F808160E0F6
:100600008F730E94DE00B7CF209184003091850067
:10061000E09100018E2FEE0F990BFC01EE0FFF1FF2
:10062000E80FF91FEE5FFE4F81819281820F931FC9
:100630009093890080938800E09100018E2FEE0F47
:10064000990BFC01EE0FFF1FE80FF91FEE5FFE4F45
:10065000808186FF11C0E09100018E2FEE0F990B73
:10066000FC01EE0FFF1FE80FF91FEE5FFE4F8081C8
:1006700061E08F730E94DE00FF91EF91DF91CF91D7
:10068000BF91AF919F918F917F916F915F914F91AA
:100690003F912F910F900FBE0F901F90189580E4FF
:1006A0009CE990938900809388008FEF80930001EC
:1006B000E3CFFC01909101019C3098F481E0890F17
:1006C000809301019083892F90E0FC01EE0FFF1FC2
:1006D000E80FF91FEE5FFE4F88EB9BE0928381836A
:1006E00008958FEF80830895789484B5826084BDE7
:1006F00084B5816084BD85B5826085BD85B5816026
:1007000085BD80916E00816080936E0010928100A3
:10071000809181008260809381008091810081605E
:10072000809381008091800081608093800080911F
:10073000B10084608093B1008091B00081608093AB
:10074000B00080917A00846080937A0080917A0072
:10075000826080937A0080917A00816080937A0031
:1007600080917A00806880937A001092C10062E0E4
:1007700082E00E940C0162E083E00E940C0162E0D2
:1007800084E00E940C0162E085E00E940C0162E0BE
:1007900086E00E940C0169E070E085E391E00E9430
:1007A000F7016AE070E082E391E00E94F7016BE0FC
:1007B00070E08FE291E00E94F70169E570E085E367
:1007C00091E00E94940169E570E082E391E00E946B
:1007D000940169E570E08FE291E00E94940180E06D
:1007E000C82E80E0D82EC1E082E00E94B500892B9F
:1007F000C1F480913C0181110EC080913B018111B7
:100800000AC080913A01811106C08091390181119D
:1008100002C0C09338016AE070E080E090E00E947E
:10082000620183E00E94B500D0913801892BB1F4B8
:10083000D1110EC080913B0181110AC080913A0113
:10084000811106C080913901811102C0C0933C0121
:100850006AE070E080E090E00E94620184E00E9423
:10086000B50010913C01892BA1F411110CC0D111DC
:100870000AC080913A01811106C08091390181112D
:1008800002C0C0933B016AE070E080E090E00E940B
:10089000620185E00E94B50000913B01892B91F433
:1008A00011110AC0011108C0D11106C0809139018F
:1008B000811102C0C0933A016AE070E080E090E0EC
:1008C0000E94620186E00E94B500F0903A01892BF7
:1008D00081F4111108C0011106C0F11004C0D1113A
:1008E00002C0C09339016AE070E080E090E00E94AD
:1008F0006201DD23D1F069E570E085E391E00E94BB
:10090000940169E570E082E391E00E94940169E559
:1009100070E08FE291E00E94940164E670E080E074
:1009200090E00E946201109238011123D1F066E933
:1009300070E085E391E00E94940166E970E082E353
:1009400091E00E94940169E570E08FE291E00E94DD
:10095000940164E670E080E090E00E9462011092F1
:100960003C010023D1F066E970E085E391E00E944C
:1009700094016EE170E082E391E00E94940169E5E8
:1009800070E08FE291E00E94940164E670E080E004
:1009900090E00E94620110923B01FF20D1F06EE1D5
:1009A00070E085E391E00E94940169E570E082E3E4
:1009B00091E00E94940166E970E08FE291E00E946C
:1009C000940164E670E080E090E00E946201109281
:1009D0003A01809139018823D1F06EE170E085E31E
:1009E00091E00E94940169E570E082E391E00E9449
:1009F00094016EE170E08FE291E00E94940164E660
:100A000070E080E090E00E94620110923901C11410
:100A1000D10409F4E9CE0E940000E6CE85E391E01E
:100A20000E94590382E391E00E9459038FE291E012
:100A30000C945903052E97FB1EF400940E94310577
:100A400057FD07D00E944C0507FC03D04EF40C94D0
:100A5000310550954095309521953F4F4F4F5F4F51
:100A6000089590958095709561957F4F8F4F9F4F1A
:100A700008950E946E05A59F900DB49F900DA49FB0
:100A8000800D911D11240895B7FF0C9439050E9423
:100A90003905821B930B0895A1E21A2EAA1BBB1BDA
:100AA000FD010DC0AA1FBB1FEE1FFF1FA217B3073A
:100AB000E407F50720F0A21BB30BE40BF50B661F50
:100AC000771F881F991F1A9469F760957095809514
:100AD00090959B01AC01BD01CF010895A29FB0018B
:100AE000B39FC001A39F700D811D1124911DB29F62
:100AF000700D811D1124911D0895991B79E004C08A
:100B0000991F961708F0961B881F7A95C9F780954C
:100B10000895EE0FFF1F0590F491E02D0994F894CD
:020B2000FFCF05
:00000001FF
